:100000000C9434000C9448000C9446000C94460068
:100010000C9446000C9446000C9446000C94460048
:100020000C9446000C9446000C9446000C94460038
:100030000C9446000C9446000C9446000C94460028
:100040000C9446000C9446000C9446000C94460018
:100050000C9446000C9446000C9446000C94460008
:100060000C9446000C94460011241FBECFEFD8E03C
:10007000DEBFCDBF21E0A0E0B1E001C01D92A33002
:10008000B207E1F70E947D000C94C5010C940000BA
:100090001F920F920FB60F9211248F934A9907C0A7
:1000A00080910001811103C081E0809300014A9B8F
:1000B0001EC0809100018823D1F08091010181113F
:1000C00004C081E08093010110C0813021F482E0FE
:1000D000809301010AC0823021F483E08093010102
:1000E00004C0833011F410920101109200018F912D
:1000F0000F900FBE0F901F9018950E949B0180914A
:100100000101811102C00E94C5008091010181306E
:1001100011F40E94F00080910101823011F40E94DC
:100120001A0180910101833011F40E9444018FE390
:100130009FE10197F1F700C00000E1CF84E08093D8
:100140000201089580910201880F8093020195B108
:10015000892B85B9089580910201869580930201CB
:1001600095B1892B85B908950E949E008091020166
:100170008295807F8093020108950E949E00809165
:100180000201869580930201089585B1806285B948
:1001900085B1806185B985B1886085B985B1846094
:1001A00085B92FEF83EC99E0215080409040E1F732
:1001B00000C0000085B18F7D85B985B18F7E85B97E
:1001C00085B1877F85B985B18B7F85B92FEF83ECAA
:1001D00099E0215080409040E1F700C00000089570
:1001E000CF930E94B400C0E00CC00E94AB002FEF80
:1001F00083EC99E0215080409040E1F700C000007E
:10020000CF5FC43090F385B18F7D85B985B18F7E86
:1002100085B985B1877F85B985B18B7F85B92FEF8A
:1002200083EC99E0215080409040E1F700C000004D
:10023000CF910895CF930E94BD00C0E00CC00E94F2
:10024000A2002FEF83EC99E0215080409040E1F72D
:1002500000C00000CF5FC43090F385B18F7D85B9B9
:1002600085B18F7E85B985B1877F85B985B18B7F53
:1002700085B92FEF83EC99E0215080409040E1F761
:1002800000C00000CF91089585B18F7D85B985B1FB
:100290008F7E85B985B1877F85B985B18B7F85B91B
:1002A00088E28093020185B1886285B92FEF83ECE3
:1002B00099E0215080409040E1F700C0000085B1F6
:1002C0008F7D85B985B18F7E85B985B1877F85B9E9
:1002D00085B18B7F85B92FEF83EC99E02150804069
:1002E0009040E1F700C0000084E18093020185B1F5
:1002F000846185B92FEF83EC99E0215080409040D4
:10030000E1F700C0000085B18F7D85B985B18F7E92
:1003100085B985B1877F85B985B18B7F85B92FEF89
:1003200083EC99E0215080409040E1F700C000004C
:100330000E949E0008958AB18B7F8AB98BB1846038
:100340008BB984B1806284B985B18F7D85B984B160
:10035000806184B985B18F7E85B984B1886084B9A4
:1003600085B1877F85B984B1846084B985B18B7F7D
:1003700085B9E9E6F0E08081816080838DB381609A
:0E0380008DBB78940E949E000895F894FFCFE4
:00000001FF
